{
  "contractName": "Counter",
  "abi": [
    {
      "constant": true,
      "inputs": [],
      "name": "getCount",
      "outputs": [
        {
          "internalType": "uint256",
          "name": "",
          "type": "uint256"
        }
      ],
      "payable": false,
      "stateMutability": "view",
      "type": "function"
    },
    {
      "constant": false,
      "inputs": [],
      "name": "incrementCount",
      "outputs": [],
      "payable": false,
      "stateMutability": "nonpayable",
      "type": "function"
    },
    {
      "constant": false,
      "inputs": [],
      "name": "decrementCount",
      "outputs": [],
      "payable": false,
      "stateMutability": "nonpayable",
      "type": "function"
    }
  ],
  "bytecode": "0x60806040526000805534801561001457600080fd5b50610151806100246000396000f3fe608060405234801561001057600080fd5b50600436106100415760003560e01c8063a87d942c14610046578063b7f90f1214610064578063e5071b8e1461006e575b600080fd5b61004e610078565b6040518082815260200191505060405180910390f35b61006c610081565b005b61007661010a565b005b60008054905090565b60008054116100f8576040517f08c379a000000000000000000000000000000000000000000000000000000000815260040180806020018281038252600d8152602001807f436f756e74206973207a65726f0000000000000000000000000000000000000081525060200191505060405180910390fd5b60016000808282540392505081905550565b6001600080828254019250508190555056fea265627a7a72315820121d4919cfe6f8e2c43fbc1ead4906c883475be498b72058c372a2ac6be49ec764736f6c63430005100032",
  "source": "//SPDX-License-Identifier: MIT\n\npragma solidity >=0.5.0;\n\n// Above statement specifies the compatible compiler versions\n// Learn more about Solidity here: https://solidity.readthedocs.io\n\n// Declare a contract called HelloWorld\ncontract Counter {\n    // Define a unsigned integer called name, initialize it to 'Celo'\n    uint256 count = 0;\n\n    // Declare a function called getCount.\n    // The 'public' label means the function can be called internally, by transactions or other contracts.\n    // The 'view' label indicates that the function does not change the state of the contract.\n    // The function returns the value of count variable which is of type uint256\n    function getCount() public view returns (uint256) {\n        return count;\n    }\n\n    // Declare a function called incrementCount\n    // The function increments value of count by 1.\n    // The 'external' label means the function can only be called from an external source\n    function incrementCount() external {\n        count += 1;\n    }\n\n    // Declare a function called decrementCount\n    // The function decrements value of count by 1.\n    // The 'external' label means the function can only be called from an external source\n    function decrementCount() external {\n        require(count > 0, \"Count is zero\");\n        count -= 1;\n    }\n}\n",
  "sourcePath": "C:\\Users\\xQc\\Documents\\blockchain\\celoDappCounter\\contracts\\Counter.sol",
  "compiler": {
    "name": "solc",
    "version": "0.5.16+commit.9c3226ce.Emscripten.clang"
  },
  "schemaVersion": "3.2.0",
  "updatedAt": "2021-04-14T17:31:44.629Z",
  "devdoc": {
    "methods": {}
  },
  "userdoc": {
    "methods": {}
  }
}